:020000040800F2
:1000000078650020AD02000883260008D12400088E
:10001000812600080D040008E536000800000000F5
:10002000000000000000000000000000DD2E0008BD
:100030000F0400080000000085260008DF2E0008DD
:10004000C7020008C7020008C7020008C70200086C
:10005000C7020008C7020008C7020008C70200085C
:10006000C7020008C7020008C7020008C70200084C
:10007000C7020008C7020008C7020008C70200083C
:10008000C7020008C7020008C7020008C70200082C
:10009000C7020008C7020008C7020008C70200081C
:1000A000C7020008C7020008C7020008C70200080C
:1000B000C7020008C7020008C7020008C7020008FC
:1000C000C7020008C7020008C7020008C7020008EC
:1000D000C7020008C7020008C7020008C7020008DC
:1000E000C7020008C702000800000000C70200089D
:1000F000C7020008C7020008C7020008C7020008BC
:10010000C7020008C7020008C7020008C7020008AB
:10011000C7020008C7020008C7020008C70200089B
:10012000C7020008C7020008C7020008C70200088B
:10013000C7020008C7020008C7020008C70200087B
:1001400000000000000000000000000000000000AF
:10015000C7020008C7020008C7020008C70200085B
:10016000C7020008C7020008C7020008C70200084B
:10017000C7020008C7020008C7020008C70200083B
:10018000C7020008C7020008C7020008C70200082B
:10019000C7020008C7020008C7020008C70200081B
:1001A000C7020008C7020008C7020008C70200080B
:1001B000C7020008C7020008C7020008C7020008FB
:1001C000C7020008C7020008C7020008C7020008EB
:1001D000C7020008C7020008C7020008C7020008DB
:1001E000C7020008C7020008C7020008C7020008CB
:1001F000C7020008C7020008C7020008C7020008BB
:10020000C7020008C7020008C7020008C7020008AA
:10021000C7020008C7020008C7020008C70200089A
:10022000C7020008C7020008C7020008000000005B
:10023000C7020008C702000800000000C70200084B
:10024000C7020008C7020008C7020008C70200086A
:10025000C7020008C7020008C7020008C70200085A
:10026000C7020008C7020008C7020008C70200084A
:10027000C7020008C7020008C7020008000000000B
:10028000C7020008C7020008C702000800000000FB
:1002900000000000C7020008DFF80CD000F0A4F84E
:1002A000004800475D5600087865002006488047F2
:1002B00006480047FEE7FEE7FEE7FEE7FEE7FEE74B
:1002C000FEE7FEE7FEE7FEE7C52F000899020008FB
:1002D0002DE9F05F0546002092469B46884606467B
:1002E000814640241BE0284641464746224600F00E
:1002F0006AF853465A46C01A914110D3114618461F
:10030000224600F051F82D1A67EB01084F462246AD
:100310000120002100F048F817EB00094E41201E93
:10032000A4F10104DFDC484631462A464346BDE8D5
:10033000F09F40EA01039B0703D009E008C9121FA0
:1003400008C0042AFAD203E011F8013B00F8013B8F
:10035000521EF9D27047D2B201E000F8012B491EBB
:10036000FBD270470022F6E710B513460A46044652
:100370001946FFF7F0FF204610BDCAB2401E10F824
:10038000011F8A4202D00029F9D10020704730B500
:1003900004460020034600E05B1C934203D2E05C6D
:1003A000CD5C401BF8D030BD202A04DB203A00FA97
:1003B00002F1002070479140C2F1200320FA03F3BC
:1003C000194390407047202A04DB203A21FA02F0BA
:1003D0000021704721FA02F3D040C2F1200291407F
:1003E0000843194670470000064C074D06E0E068D8
:1003F00040F0010394E8070098471034AC42F6D36C
:10040000FFF74EFF1864000838640008FEE77047E5
:1004100072B6FEE72DE9F84F03247D4D00234FF01F
:1004200001094FF0B04B4FF00F0AE9E009FA03F76A
:100430003A4076D00E7906F00306012E01D0022E46
:1004400018D1D0F808C04FEA430ECE6804FA0EF86F
:100450002CEA080C06FA0EF646EA0C068660D0F87E
:1004600004C00E792CEA070CC6F300169E4046EA3B
:100470000C0646600E79F643B6070BD0C6684FEA05
:1004800043088F6804FA08FC26EA0C0607FA08F706
:100490003743C7600E7906F00306022E12D1DE083C
:1004A0000F694FEA437C00EB8606B646366A4FEA90
:1004B000DC6C0AFA0CF807FA0CF726EA0806374350
:1004C000CEF820700F7906684FEA430807F003075B
:1004D00004FA08FC07FA08F726EA0C063743076017
:1004E0004E6816F4403F1CD04A4E376847F002076A
:1004F000376036689F0706F00206009623F0030671
:1005000006F1B046B6463F0FD6F80864DFF808811A
:100510000AFA07FC404526EA0C0603D14FF0000C0E
:1005200041E06CE0DFF8F4C0604502D14FF0010C0F
:1005300039E0DFF8ECC0604502D14FF0020C32E048
:10054000DFF8E0C0604502D14FF0030C2BE0DFF88C
:10055000D8C0604502D14FF0040C24E0DFF8CCC0D5
:10056000604502D14FF0050C1DE0DFF8C4C06045C6
:1005700002D14FF0060C16E0DFF8B8C0604502D19A
:100580004FF0070C0FE0DFF8B0C0604502D14FF02C
:10059000080C08E0DFF8A4C0604502D14FF0090C58
:1005A00001E04FF00A0C0CFA07FC4CEA060CCEF8FE
:1005B00008C44F68DBF80060FF0226EA020600D597
:1005C00016435F46CBF80060D1F804C0DBF8046046
:1005D0005FEA8C2C26EA020600D516437E606E6820
:1005E0004F6826EA0206BF0300D516436E602E68E8
:1005F0004F6826EA0206FF0300D516432E605B1CF7
:100600000A6832FA03F67FF411AFBDE8F88F0000F4
:1006100080000058F44402580000025800040258B8
:1006200000080258000C025800100258001402582A
:1006300000180258001C02580020025800240258DA
:100640000AB1816170470904FBE7000001480068B6
:10065000000C70470010005C014880687047000083
:1006600000000020024881680278114481607047D0
:1006700000000020032010B500F078F801F068FABF
:100680000F4A104914681368C4F3032203F00F03E0
:100690008A5CC95C02F01F0201F01F01D0400A4AC7
:1006A00020FA01F11160094908600F2000F010F8EC
:1006B00008B1012010BD00F02BF8002010BD000093
:1006C000184402589A5F0008100000200C00002017
:1006D00070B50D4D04462878A0B14FF47A71B1FB86
:1006E000F0F00A490968B1FBF0F001F08EFD48B95D
:1006F000102C07D200222146501E00F017F80020CF
:100700006C6070BD012070BD000000200C00002056
:10071000054808B5016841F002010160006800F079
:100720000200009008BD0000F44402580E4BF0B4E3
:100730001B680D46C3F30223C3F10706042E00D93C
:100740000426191D072901D2002300E0DB1E012425
:1007500004FA06F19C40491E2940641E9940144049
:100760002143F0BC02F0E4BF0CED00E0064900F0CC
:10077000070210B54FF6FF040868044B204040EA1A
:1007800002201843086010BD0CED00E00000FA05DF
:10079000134970B50A68D243520705D5096801F0BC
:1007A0000701814213D118E00A6822F007020243D0
:1007B0000A60FFF751FF0A4D4FF47A760446083D70
:1007C00007E000BFFFF748FF001BB04201D901203E
:1007D00070BD2868C0438004F4D4002070BD0000C0
:1007E0000C4802582DE9F84F1E4615468A46044625
:1007F000FFF732FF814694F8400001280ED0012710
:100800004FF0000884F8407094F84100012807D0A8
:100810005FF0020084F84080BDE8F88F0220FBE71B
:100820004221C4F8448084F84110002220214B4624
:100830002046009602F00EFA0028EBD121682868C5
:1008400088622168686848622168A868C862206870
:100850002969026822F4400242F4800211430160D7
:10086000E9684FF000622046CAF82810514601F0AE
:100870000AFF01224B4608212046009602F0EAF9C1
:100880000028C7D122680821D16084F84170C1E7EF
:100890002DE9F84F17468B460446FFF7DDFE8246EA
:1008A00094F8400001280ED001264FF0000884F88B
:1008B000406094F84100012807D0022584F8408068
:1008C0002846BDE8F88F0220FBE74FF00209C4F884
:1008D000448084F84190002220215346204600970E
:1008E00002F0B8F90500E9D100225946204601F08E
:1008F000CAFEDBF8240058B90122534602212046E3
:10090000009702F0A7F90500D8D12168C1F80C9032
:1009100084F84160D2E70000F8B50446FFF79CFE7A
:1009200005461CB194F8410010B107E00120F8BD64
:10093000204600F047F841F28830A06420686FF04C
:10094000FF02A168036802EB012223F4F85111436E
:100950000160A06C002220212B460090204602F06E
:1009600079F90028E3D12268D4E907352679E168CE
:10097000176845EA0665DFF844C01943104B294360
:100980000025012607EA0C07394311602268D4E9E3
:100990000517B4F810C0D2F804E039430EEA030E8C
:1009A0004EEA0C431943516021680A6842F0010283
:1009B0000A60656484F84160F8BD00002FFFFF0005
:1009C000FEF8E0FF2DE9F041B6B00446142130A84E
:1009D000FFF7C8FCC0216846FFF7C4FC2A4920681D
:1009E00088424DD1002013904FF000710446CDE9AC
:1009F0000010684600F062FA08B1FFF709FD2348CD
:100A0000016841F480410160006800F48040359045
:100A10001E480C30016841F040010160016801F09E
:100A200040013591016841F020010160006832AA5F
:100A3000022500F02000359003260A27012182E8D4
:100A4000C2004020CDE93005114830A9FFF7E2FC93
:100A500009213294DFF83C804FF49860CDE933618E
:100A6000CDE9300530A94046FFF7D4FC300232AA68
:100A7000CDE9300530A9404682E8D000FFF7CAFC36
:100A800036B0BDE8F081000000500052D444025856
:100A900000180258001402582DE9F84F15460E466A
:100AA0000446FFF7D9FD82462068816994F84030FA
:100AB00000F12009012B0DD001274FF0000884F828
:100AC000407094F84120012A06D0022084F840802A
:100AD000BDE8F88F0220FBE7C4F84480A6B32222C9
:100AE00084F841200269521CA2630269521C6263AD
:100AF0002663426922F0406242F0806242612068CF
:100B000081610EE00621204602F0A4F8C8B999F8E8
:100B10000000216B0870206B401C2063A06B401EFE
:100B2000A063A06B53464FF0010200950028E9D165
:100B30004FF00201204602F08DF810B92268022120
:100B4000D16084F84170C1E7FFE7616C012041F09A
:100B500008016164BAE700002DE9F84F15460E461A
:100B60000446FFF779FD94F8401082462068012979
:100B700000F120090ED001274FF0000884F84070E2
:100B800094F84110012907D05FF0020084F84080FA
:100B9000BDE8F88F0220FBE7C4F8448086B3122139
:100BA00084F841100169491CE1620169491CA16294
:100BB0006662416921F0406141610EE004212046F6
:100BC00002F048F8C8B9606A017889F80010606AD4
:100BD000401C6062E06A401EE062E06A53464FF0EB
:100BE000010200950028E9D14FF00201204602F0F1
:100BF00031F810B922680221D16084F84170C5E74C
:100C0000FFE7616C012041F008016164BEE700006C
:100C100010B500F057FF05490968054AC1F30211F4
:100C2000515C01F01F01C84010BD00002044025873
:100C30009A5F0008494930B5484C0B1D0A681434C6
:100C400009681D68246802F00303C5F30012C1F3AC
:100C50000531C4F3CC04002914FB02F200EE102A83
:100C6000F8EE400A75D03F4A9FED3D1AB7EE000AF4
:100C70006BB1DFED3D1A012B01D0022B64D002EEE7
:100C8000101A1168F8EE422A81EEA22A21E0334CB4
:100C9000283C23689B0612D5344B246801EE901A39
:100CA0001168C4F3C104F8EE612AE34001EE903A02
:100CB000C1F30801F8EE611A81EEA22A0BE001EE01
:100CC000901ADFED2B2A00BFF8EE611A116882EE50
:100CD000A12AC1F3080101EE901A1168F8EE611A19
:100CE00040EE811A71EE800A62EE200AC1F34621BD
:100CF00001EE101AB8EE411A31EE001AC0EE811A58
:100D0000BCEEE11A80ED001A1168C1F3064101EE54
:100D1000101AB8EE411A31EE001AC0EE811ABCEE7C
:100D2000E11A80ED011A1168C1F3066101EE101A93
:100D3000B8EE411A31EE000A80EE801ABCEEC10A0C
:100D400080ED020A30BD04E001EE901ADFED092AC1
:100D5000BAE70021016041608160F3E7284402584E
:100D600000000039384402580024744A0090D0032F
:100D70000024744C20BCBE4B494930B5484C0B1D77
:100D80000A681C3409681D68246802F00303C5F36F
:100D90000022C1F30551C4F3CC04002914FB02F274
:100DA00000EE102AF8EE400A75D03F4A9FED3D1A3A
:100DB000B7EE000A6BB1DFED3D1A012B01D0022B1B
:100DC00064D002EE101A1168F8EE422A81EEA22ACF
:100DD00021E0334C283C23689B0612D5344B246811
:100DE00001EE901A1168C4F3C104F8EE612AE340E1
:100DF00001EE903AC1F30801F8EE611A81EEA22AE1
:100E00000BE001EE901ADFED2B2A00BFF8EE611A1D
:100E1000116882EEA12AC1F3080101EE901A11684F
:100E2000F8EE611A40EE811A71EE800A62EE200A35
:100E3000C1F3462101EE101AB8EE411A31EE001A44
:100E4000C0EE811ABCEEE11A80ED001A1168C1F300
:100E5000064101EE101AB8EE411A31EE001AC0EE4A
:100E6000811ABCEEE11A80ED011A1168C1F3066126
:100E700001EE101AB8EE411A31EE000A80EE801A27
:100E8000BCEEC10A80ED020A30BD04E001EE901A0A
:100E9000DFED092ABAE70021016041608160F3E7D4
:100EA0002844025800000039404402580024744A83
:100EB0000090D0030024744C20BCBE4B2DE9FE4FA3
:100EC0000546DFF8E48350F8081B0024F64FC943B9
:100ED000019005F12800264608F124080090080139
:100EE0001DD4A86E50B1B0F5801F0CD0B0F5001F16
:100EF0000ED0B0F5401F1ED001240FE0386840F43A
:100F00000030386017E00198022101F0C7FE03E0CD
:100F10000098022101F052FF04000CD026462888D8
:100F2000C043C00523D4A86D05281ED2DFE800F019
:100F30000C11161B1B00AA6ED8F8001021F44011EA
:100F40001143C8F80010EAE7386840F40030386010
:100F500009E00198002101F0A1FE03E000980021C2
:100F600001F02CFF044674B100E0012426462888D5
:100F7000C043800528D4E86D80281ED00CDC90B1D9
:100F800040280ED114E0AA6DD8F8001021F0070116
:100F90001143C8F80010EAE7C02813D0B0F5807FED
:100FA00010D001240FE0386840F40030386009E0C8
:100FB0000198002101F072FE03E00098002101F089
:100FC000FDFE04469CB126462888DFF8DC92C0432B
:100FD00009F12C0940052CD4D5F8A800B0F5800FF4
:100FE00020D00DDCA0B1B0F5001F0FD115E0EA6DE7
:100FF000D8F8001021F4E0711143C8F80010E3E7BD
:10100000B0F5C00F13D0B0F5000F10D001240FE0E1
:10101000386840F40030386009E00198002101F0A0
:101020003DFE03E00098002101F0C8FE04467CB1BB
:1010300026462888C04300052DD4D5F8AC00B0F171
:10104000007F21D00EDCA8B1B0F1807F10D116E076
:10105000D5F8A820D9F8001021F460011143C9F88F
:101060000010E6E7B0F1407F13D0B0F1806F10D0F0
:1010700001240FE0386840F40030386009E001983E
:10108000002101F00BFE03E00098002101F096FE24
:10109000044674B126462868C04380011FD4E86C1A
:1010A000D8B110280FD0202812D0302815D0012414
:1010B00014E0D5F8AC20D9F8001021F0E06111431C
:1010C000C9F80010E7E7386840F40030386004E001
:1010D0000198022101F0E2FD044674B126462888F9
:1010E000C043C0042BD4286EB0F5005F20D00DDCC7
:1010F000A0B1B0F5805F0FD115E06B48EA6C2030ED
:10110000016821F0300111430160E8E7B0F5405F6C
:1011100013D0B0F5804F10D001240FE0386840F4B0
:101120000030386009E00198002101F0B7FD03E0CC
:101130000098002101F042FE04468CB12646288822
:10114000C043800429D4686EB0F5403F23D010DC42
:1011500008B3B0F5803F14D0B0F5003F0FD115E0D3
:101160002A6ED8F8001021F4E0411143C8F80010AD
:10117000E5E7B0F5802F0ED0B0F5A02F0BD00124FD
:101180000AE00198012101F089FD03E000980121A6
:1011900001F014FE044694B126462888C04340045A
:1011A0002AD4D5F8B000B0F1405F23D010DC08B3EA
:1011B000B0F1805F14D0B0F1005F0FD115E06A6E1E
:1011C000D8F8001021F4E0211143C8F80010E4E73A
:1011D000B0F1804F0ED0B0F1A04F0BD001240AE047
:1011E0000198012101F05AFD03E00098012101F06E
:1011F000E5FD044674B126462888C04300041FD488
:10120000286FD8B1B0F1805F0ED0B0F1005F10D080
:10121000012414E0D5F8B020D9F8001021F0E04105
:101220001143C9F80010E7E7386840F4003038602F
:1012300004E00198012101F031FD044674B1264615
:101240002868C043C0011ED4A86CD0B101280ED0BC
:10125000022811D0032814D0012413E02A6FD8F8F3
:10126000001021F040511143C8F80010E8E7386839
:1012700040F40030386004E00198022101F00EFDD6
:101280000446ACB126462868DFF81CB0C043ABF179
:101290001C0B400252D40548016841F48071016082
:1012A000FFF7DAF9824611E02C4402580048025850
:1012B000FA48AA6C016821F0030111430160E2E7DA
:1012C000FFF7CAF9A0EB0A00642835D8F448006893
:1012D000C005F5D58CBBDFF8C4A3B5F8B4100AF18E
:1012E000240ADAF8000001F4407100F440708842EA
:1012F00011D0DAF80010DAF8002021F4407142F43D
:101300008032CAF80020DAF8002022F48032CAF8CD
:101310000020CAF80010D5F8B400B0F5807F1AD1CB
:10132000FFF79AF9029012E0FFF796F90299411A35
:1013300041F2883081420AD9032426462878DFF812
:101340005CA3C0430AF1080AC00721D03CE0DAF8E8
:1013500000008007E8D5D5F8B410C1F301200328B8
:1013600058460DD0016821F47C510160B5F8B420D5
:10137000DAF80010C2F30B021143CAF80010DDE7DF
:10138000C84A036802EA111223F47C511143ECE7C6
:10139000E86F182816D005DCA0B1082808D010285E
:1013A00004D10AE020280DD028280BD001240AE01F
:1013B0000198012101F072FC03E00098012101F085
:1013C000FDFC044664B126462878C04380071ED43D
:1013D000A86F062819D2DFE800F0160C11161616B1
:1013E000EA6FDAF8001021F038011143CAF8001052
:1013F000EAE70198012101F051FC03E00098012186
:1014000001F0DCFC04467CB100E00124264628788B
:10141000C04340071FD4D5F89400062819D2DFE84E
:1014200000F0160C11161616AA6FDAF8001021F04B
:1014300007011143CAF80010E9E70198012101F002
:101440002DFC03E00098012101F0B8FC0446A4B192
:1014500000E0012426462878C04380062BD4D5F826
:101460009000B0F1405F24D011DC10B3B0F1805F88
:1014700015D0B0F1005F10D116E0D5F89420D9F85E
:10148000001021F007011143C9F80010E3E7B0F1A3
:10149000804F0ED0B0F1A04F0BD001240AE001988C
:1014A000002101F0FBFB03E00098022101F086FC23
:1014B000044694B126462878C04340062BD4D5F87C
:1014C0009C00B0F5406F24D011DC10B3B0F5806FF4
:1014D00015D0B0F5006F10D116E0D5F89020DAF8ED
:1014E000001021F0E0411143CAF80010E3E7B0F525
:1014F000805F0ED0B0F5A05F0BD001240AE0019808
:10150000002101F0CBFB03E00098022101F056FC22
:10151000044694B126462878C04300062BD4D5F85B
:10152000A000B0F5C04F24D011DC10B3B0F5005FBF
:1015300015D0B0F5804F10D116E0D5F89C20D9F821
:10154000001021F4E0511143C9F80010E3E7B0F5B1
:10155000004F0ED0B0F5204F0BD001240AE00198C7
:10156000002101F09BFB03E00098022101F026FC22
:10157000044654B126462878C04300071ED4D5F847
:101580008400B0F5805F0AD00FE0D5F8A020D9F82C
:10159000001021F460411143C9F80010EBE70098F6
:1015A000022101F00BFC00B10126D5F88420DAF805
:1015B000001021F440511143CAF800102878C043AC
:1015C000C00613D4D5F89800B0F5807F05D10098F7
:1015D000022101F0F3FB00B10126D5F89820D9F8DB
:1015E000001021F440711143C9F800102868C0436D
:1015F000000316D4D5F8A40038B1B0F5803F09D067
:10160000B0F5003F0BD001240AE00198002101F061
:1016100045FB03E00098022101F0D0FB04468CB1A9
:1016200026462868C043400322D4D5F88800B0F588
:10163000801F11D0B0F5001F13D0B0F5401F15D09A
:10164000012414E0D5F8A420D9F8001021F4403189
:101650001143C9F80010E4E7386840F400303860FE
:1016600004E00098012101F0A9FB04465CB1264684
:101670002868C043C00323D4286DA8B1B0F5803FCB
:1016800017D001241BE0D5F88820DAF8001021F4E7
:1016900040111143CAF80010EAE700004C44025818
:1016A00000480258CFFFFF00386840F4003038602F
:1016B00004E00198022101F0F1FA0446E4B1264663
:1016C0002868C043800005D40098022101F076FB11
:1016D00000B101262868C04380031BD4D5F88000E0
:1016E000B0B1B0F5807F0FD0B0F5007F10D0B0F56D
:1016F000407F0DD001240CE05A482A6D016821F486
:10170000803111430160DBE7386840F40030386015
:10171000ECB326462868C043C00207D46A6FD8F8E5
:10172000001021F000411143C8F800102868C043A0
:10173000C00008D4D5F8B820DBF8001021F48041AF
:101740001143CBF800102868C043800207D4EA6E2A
:10175000D8F8001021F080711143C8F800102868F3
:10176000C04340000CD4DBF8001021F40041CBF85A
:101770000010DBF80010D5F8BC201143CBF80010A6
:101780002868C04308D437486A6D016800E018E053
:1017900021F04051114301602868C043000208D481
:1017A000D5F88C20DAF8001021F440011143CAF872
:1017B000001028790024C04300F0010020430AD023
:1017C0000FE0D5F88020DAF8001021F440711143C1
:1017D000CAF800109EE70198002101F05FFA00B1FD
:1017E00006462879C04300F00200204305D1019845
:1017F000012101F053FA00B106462879C04300F0F8
:101800000400204305D10198022101F047FA00B1FC
:1018100006462879C04300F00800204305D100980F
:10182000002101F0CBFA00B106462879C04300F050
:101830001000204305D10098012101F0BFFA00B14A
:1018400006462879C04300F02000044304D10098E4
:10185000022101F0B3FA00B916B10120BDE8FE8FF4
:101860000020FBE74C4402582DE9F05F04000F46CE
:101870007ED0DFF83882D8F8000000F00F00B842C0
:101880000CD2D8F8001021F00F013943C8F800102D
:10189000D8F8000000F00F00B84269D12078844DDC
:1018A00040070AD52069296801F07001884204D9EF
:1018B000296821F070010143296020787C4E361D93
:1018C00000070AD56069316801F07001884204D9C7
:1018D000316821F07001014331602078C0060AD5DB
:1018E000A069316801F4E061884204D9316821F4CB
:1018F000E061014331602078DFF8B4B180060BF17C
:10190000080B0CD5E1695846DBF8002002F07002A4
:10191000914204D9026822F070020A4302602078E2
:1019200080070AD5E068296801F00F01884204D9D0
:10193000296821F00F01014329602078C0073ED0BB
:101940005B49A2682868183920F470601043286049
:101950006068022818D0032819D00968012819D016
:10196000490700294ADADFF848A1AAF1080A00E08D
:1019700044E0DAF8002022F007020243CAF800200F
:10198000FEF76AFE814612E009688903E9E7096803
:101990008901E6E7C905E4E7FEF75EFEA0EB090171
:1019A00041F28830814202D90320BDE8F09F61688E
:1019B000DAF8000000F03800B0EBC10FECD120786D
:1019C00080070AD5E068296801F00F01884204D237
:1019D000296821F00F0101432960D8F80010404622
:1019E00001F00F01B9420BD9016821F00F01394311
:1019F0000160006800F00F00B84201D00120D4E778
:101A0000207840070AD52069296801F070018842D2
:101A100004D2296821F07001014329602078000771
:101A20000AD56069316801F07001884204D23168DA
:101A300021F07001014331602078C0060AD5A06909
:101A4000316801F4E061884204D2316821F4E06138
:101A500001433160207880060CD5E1695846DBF8F7
:101A6000002002F07002914204D2026822F070025B
:101A70000A43026000F06CF80E492A682B68C2F332
:101A8000032203F00F038A5CC95C02F01F0201F01D
:101A90001F01D040084A20FA01F11160074908608F
:101AA00007480068BDE8F05FFEF712BE0020005254
:101AB000184402589A5F0008100000200C00002013
:101AC0000400002030B500F043F80B4A0B490C4BE2
:101AD00015681468C5F3032204F00F048A5C095DDD
:101AE00002F01F0201F01F01D040064A20FA01F166
:101AF00019601060084630BD184402589A5F00080B
:101B0000100000200C00002000B5FFF7DBFF0549A6
:101B10000968054AC1F30211515C01F01F01C84078
:101B200000BD00001C4402589A5F000800B5FFF792
:101B3000C9FF05490968054AC1F30221515C01F05A
:101B40001F01C84000BD00001C4402589A5F0008F5
:101B5000454970B545480968434B103B11F03802C0
:101B600008D00111082A03D0102A0BD0182A0BD054
:101B7000084670BD19688906FBD51968C1F3C10113
:101B8000C84070BD3A4870BD3749374D18310C1DFB
:101B900024350A68096826682D6802F0030406F0F7
:101BA0000102C1F30511C5F3CC0515FB02F200EEED
:101BB000102AB8EE400AE9B32F4ADFED2E0AB7EE3D
:101BC000001A6CB1DFED2D1A012C01D0022C43D08C
:101BD00002EE101A1068F8EE422A81EEA22A1EE0E8
:101BE0001C68A40611D51B6801EE901A1168C3F396
:101BF000C103F8EE612AD84001EE900AC1F3080053
:101C0000F8EE611A81EEA22A0BE001EE901ADFEDE8
:101C10001C2A00BFF8EE611A106882EEA12AC0F3F8
:101C2000080001EE900AF8EE611A40EE201A31EE3B
:101C3000810A00E015E022EE000A1068C0F3462099
:101C4000401C00EE900AF8EE600A80EE201ABCEE0E
:101C5000C10A10EE100A70BD01EE901ADFED092ADC
:101C6000D8E7002070BD0000104402580090D00357
:101C700040787D0100000039304402580024744A45
:101C80000024744C20BCBE4B2DE9F05F04007DD0D5
:101C9000FF4F2078FE4D1837DFF8F493103DC00752
:101CA00048D0D9F80000396800F03800102815D065
:101CB000182803D101F0030002280FD06068B0F5A6
:101CC000803F12D010B1B0F5A02F18D0286820F4B2
:101CD00080302860286820F4802009E0286880038C
:101CE00028D560680028D2D024E0286840F48030ED
:101CF0002860606888B1FEF7AFFC064609E02868F6
:101D000040F480202860F0E7FEF7A6FC801B6428E2
:101D10006FD828688003F7D50CE0FEF79DFC0646D7
:101D200005E000BFFEF798FC801B6428F0D8286807
:101D30008003F7D4207841F20308D54E0C3E80078B
:101D400069D5D9F80000396810F038000ED018288D
:101D500001D188070AD0E06890B3296821F0190101
:101D600001432960FEF778FC824631E0286840078D
:101D700002D5E06800288AD0E168286820F01900C0
:101D800008432860FEF768FC824607E0DFE000BFFA
:101D9000FEF762FCA0EB0A000228B9D828684007C9
:101DA000F6D500BFFEF752FC40451BD820694028FD
:101DB00012D0316821F47C3141EA003030602AE0F1
:101DC00018E000BFFEF748FCA0EB0A0002289FD8ED
:101DD00028684007F6D5E5E7306820F47C3040F409
:101DE0000030EBE7207C316821F0FE4141EA0060E1
:101DF000E4E70DE1286820F001002860FEF72CFCE4
:101E0000824605E0FEF728FCA0EB0A0002288DD8E8
:101E100028684007F6D42078C0065DD5D9F80000C0
:101E2000DFF86CB2396800F03800ABF1040B082819
:101E300010D0182803D101F0030001280AD0E0696E
:101E40000028286838D040F080002860FEF704FCA5
:101E5000824623E02868C00523D5E069802876D132
:101E60001FE0206A202821D0316821F0F84141EAA2
:101E70008060306030E000BF94F82010DBF8002074
:101E800022F07C5242EA0161CBF8001024E000BF4E
:101E9000FEF7E2FBA0EB0A00022898D82868C005EC
:101EA000F6D5FEF7D3FB4045E6D8DAE7306820F0F8
:101EB000F84040F08040DCE720F080002860FEF72A
:101EC000CBFB064605E000BFFEF7C6FB801B0228E1
:101ED0009DD82868C005F7D42078000729D56C481C
:101EE0006169643000298046016811D041F0010128
:101EF0000160FEF7B1FB064605E000BFFEF7ACFB54
:101F0000801B0228C9D8D8F800008007F6D510E059
:101F100021F001010160FEF79FFB064605E000BFCE
:101F2000FEF79AFB801B022872D8D8F800008007C1
:101F3000F6D42078800623D5A0690028286810D020
:101F400040F480502860FEF787FB064605E036E146
:101F5000FEF782FB801B02285AD828688004F7D538
:101F60000EE020F480502860FEF776FB064604E081
:101F7000FEF772FB801B02284AD828688004F7D439
:101F8000207840074FD5DFF80C81D8F8001041F4D5
:101F90008071C8F80010FEF75FFB064605E000BF41
:101FA000FEF75AFB801B642832D8D8F80000C00521
:101FB000F6D5374EA068603601280AD008B105284A
:101FC00013D0306820F001003060306820F0040049
:101FD00002E0306840F001003060A06841F2883AC9
:101FE00090B1FEF739FB80460AE0306840F004000B
:101FF0003060EEE7FEF730FBA0EB0801514507D853
:1020000030688007F6D50EE0FEF726FB804607E035
:1020100084E000BFFEF720FBA0EB080151457DD80E
:1020200030688007F6D4606AB0B3DFF86480D9F80E
:10203000001008F120084FF6F87B08F10409C1F3FD
:10204000C2010329A8F1040A69D00228286820F0F7
:102050008070286003D0FEF7FFFA044684E0FEF7A4
:10206000FBFA064605E000BFFEF7F6FA801B0228E1
:1020700077D828688001F7D4E26A40F2F3313868F3
:1020800054F8283F884340EA02101843386004E0BF
:102090001044025800480258B5E0217B434622898B
:1020A0004FF4FE0C208A4FF0FE474902267D521E57
:1020B000401EA1F50071C2F308088AB2761E0CEA30
:1020C000004042EA08020243504607EA06610A431A
:1020D0001A60DAF8002022F00102CAF80020D9F8CC
:1020E0000020266A22EA0B0242EAC602C9F8002052
:1020F000DAF80010A26921F00C011143CAF80010AF
:102100000168E26921F0020111430160016841F4B4
:1021100080310160016841F4003101E021E027E0F5
:102120000160016841F480210160016841F0010112
:102130000160286840F080702860FEF78DFA044640
:1021400005E000BFFEF788FA001B022809D82868BE
:102150008001F7D557E000BFFEF77EFA001B02288A
:1021600002D90320BDE8F09F28688001F4D44AE03A
:1021700039680128D8F8000021D0A26A01F00303D1
:1021800093421CD1E26AC1F305118A4217D1216B37
:10219000C0F30802491E8A4211D1616BC0F3462286
:1021A000491E91420BD1A16BC0F30642491E9142D8
:1021B00005D1E16BC0F30660491E814201D00120C8
:1021C000D0E7A16C4E46D9F80000C0F3CC008142A4
:1021D00019D0DAF80000554620F00100CAF80000D6
:1021E000FEF73AFA4FEA0007FEF736FAB842FBD09C
:1021F000A26C306820EA0B0040EAC2003060286818
:1022000040F0010028600020ACE7401EB0F1807F64
:1022100010B501D3012010BD4FF0E02460610F2103
:10222000601701F085FA0020A0610721216110BD2F
:1022300030B590F88410012918D0012280F884204C
:102240002421C0F888100022202401680B680D6842
:1022500023F0005325F001050D60426601680B6014
:10226000C0F8884080F88420104630BD022030BD80
:1022700070B5044690F8840001281DD0012284F82E
:1022800084202420C4F8880020680568026822F0B1
:10229000010202602068826822F060620A43826064
:1022A000204600F0FDFE2268202100201560C4F8C1
:1022B000881084F8840070BD022070BD70B504469B
:1022C00090F8840001281DD0012284F88420242065
:1022D000C4F8880020680568026822F001020260E4
:1022E0002068826822F060420A438260204600F043
:1022F000D7FE2268202100201560C4F8881084F8D9
:10230000840070BD022070BD10B5040003D0D4F865
:10231000880010B107E0012010BD002084F884007F
:10232000204600F027F82420C4F8880020680168BF
:1023300021F001010160204600F0B8FF0128EBD038
:10234000A06A10B1204600F0CDFE2068416821F45B
:10235000904141602068816821F02A0181602068F5
:10236000016841F0010101602046BDE8104000F025
:102370001DBF000070B5B6B00446142130A8FDF7AB
:10238000F1FFC0216846FDF7EDFF21492068884232
:102390003CD100201E9002210446CDE90010684681
:1023A000FEF78CFD08B1FEF733F81A48016841F4D6
:1023B00000210160006800F40020359015480838BD
:1023C000016841F480710160016801F48071359108
:1023D000016841F00101016000680225082600F053
:1023E0000100359028023090CDE931540A4830A9D7
:1023F000CDE93346FEF70EF801203090CDE9315497
:10240000064830A9CDE93346FEF704F836B070BD72
:10241000004C0040E84402580020025800000258D6
:102420002DE9F8430446D0F88800984616460D4634
:10243000202802D00220BDE8F883A5B19EB100217A
:10244000C4F890102120C4F888001834FEF704F96D
:10245000814654F8100CA687E6872027183CB0F573
:10246000805F02D003E00120E5E7206910B12E462D
:10247000002510E000260EE08021204601F0ECF857
:10248000C0B9DEB116F8010B21688862B4F85600B5
:10249000401EA4F85600B4F856004B464FF0000218
:1024A000CDF800800028E7D14FF04001204601F030
:1024B000D3F848B1C4F888700320BCE735F8020BA4
:1024C0002168C0F30800E0E7C4F888700020B2E794
:1024D000FEE700002DE9F04387B014216846FDF7C0
:1024E00041FF3B48016841F004010160016801F0CF
:1024F00004010591016841F010010160016801F0DB
:1025000010010591016841F040010160016801F08E
:1025100040010591016841F008010160016801F086
:1025200008010591016841F480710160016801F4BE
:1025300080710591016841F020010160016801F09E
:1025400020010591016841F080010160016801F0FE
:1025500080010591016841F001010160016801F00D
:1025600001010591016841F002010160006801224A
:10257000DFF86080D60300F0020031460590404647
:10258000FEF75EF8DFF85090F71100223946484612
:10259000FEF756F80125694600244046CDE900655E
:1025A000CDE90254FDF736FF00976946CDE90154A5
:1025B00048460394FDF72EFF0221280300900748A8
:1025C000CDE901416946FDF725FF07B0BDE8F0837D
:1025D000E044025800080258002002580004025843
:1025E0000C48162270B50021094BC0E90312416165
:1025F000052481610425C161016280E83800FEF78D
:102600008BF9002803D0BDE87040FDF701BF70BD15
:1026100000500052380000201848002110B5164C18
:102620000C224FF4E1330460C0E90131C160C0E91C
:1026300004128161C161016241628162FFF764FE3F
:1026400008B1FDF7E5FE0D480021FFF737FE08B1A0
:10265000FDF7DEFE09480021FFF70AFE08B1FDF78D
:10266000D7FE0648FFF7E4FD002803D0BDE8104080
:10267000FDF7CEBE10BD0000004C004084000020DD
:10268000FEE7FEE770472DE9F0434B6A4FF04065E7
:102690002BB1AA4203D004688B6A5B1E23618B694D
:1026A000002B68D00C6AB4B303688C68DC61CC6919
:1026B000FCB1D1E90B38D1F824C04E6B8F8A43EAC4
:1026C000080346EA0C0633430E6A43EA8743D1E91E
:1026D000037C43EA0C0333438E693B430F68234377
:1026E000046833433B4365E0006849688161BDE8A5
:1026F000F083D1E90B364F6A4C6B8D8A33433C43F0
:102700000E6923430C6A43EA85438D6933430968A4
:1027100023432B4362E0FFE7CC69B4F1000918D0F2
:10272000D1E90B484F6A4E6BB1F814C044EA080473
:102730003E430F683443CE6844EA8C44344344EA51
:1027400009041C4303683C431443AA425C61CBD197
:10275000CDE7D1E90B464F6A4D6BB1F814C0344355
:102760003D4300682C43096844EA8C441C430C43F5
:1027700014434461BBE70B6AABB303688C68DC614C
:10278000CC69E4B1D1E90B38D1F824C04E6B8F8A03
:1027900043EA080346EA0C0633430E6A43EA8743DA
:1027A000D1E9037C43EA0C0333438E693B43234363
:1027B000046833431343AA42636195D197E7D1E993
:1027C0000B364F6A4C6B8D8A33433C430E6923436F
:1027D0000C6A43EA854389693343234300680B430A
:1027E0001343436183E7FFE7CC6984B1D1E90B3838
:1027F0004F6A4E6BB1F814C043EA08033E433343BB
:10280000CE6843EA8C43334323430468D2E74C6ADF
:10281000002C9DD0D1E90B368F8A4D6B0168334374
:1028200025432B4343EA8740104348615FE700009C
:1028300030B595B00020012110240C900B020D93AF
:1028400005230E900A0610928D050190CDE90653DE
:102850000F9001AA129041F2883313901490CDE9A1
:102860000410CDE90214054807A9FDF7BBFF0028B5
:1028700001D06FF0020015B030BD0000380000201C
:1028800010B5FFF7ADFE00F063F80146064881423F
:1028900004D106A000F028FF002010BD0AA000F01F
:1028A00023FF4FF0FF3010BD1740EF0020573235A7
:1028B000513634204F4B2C666C6173682049443A82
:1028C00025580D0A000000002057323551363420BB
:1028D0004552524F522121212121202049443A259D
:1028E000580D0A00F0B58FB0054600234FF0EB0CF1
:1028F0004FF480774FF4406006977C0103940C936B
:10290000860308930627079041F288340B930597B6
:102910000D93CDE90962CDE900C10C482246694614
:10292000FDF7B6FF6FF0040628B90848224629468D
:10293000FEF7B2F810B130460FB0F0BDFFF778FFE8
:102940000028F9D06FF00200F6E700003800002000
:1029500010B590B04FF4807300205C010693190409
:102960000394032208909F230C90009341F2883433
:102970000B900D9007900590CDE909120A48224668
:102980006946FDF785FF08480EA92246FEF784F840
:102990009DF838209DF839009DF83A1010B01204C7
:1029A00042EA0020084310BD3800002070B58EB008
:1029B00041F2883400204FF4807166220890CDE9FE
:1029C0000610009222460B9069460C900D900990DB
:1029D00005900E48FDF75CFF4FF0FF3560B9FFF73B
:1029E00027FF6FF0020670B9992000900748224631
:1029F0006946FDF74DFF10B128460EB070BDFFF7D8
:102A000017FF0028F9D03046F7E700003800002013
:102A100010B58EB000214FF48074069462010891C5
:102A200020240B910C91D3100D910591CDE900401C
:102A300009910793039200F07BF830B10EA000F0EB
:102A400053FE6FF001000EB010BD124841F2883203
:102A50006946FDF71DFF28B10FA000F045FE6FF09D
:102A60000300F0E7FFF7E4FE0028ECD010A000F030
:102A70003BFE6FF00200E6E75732355178785F454C
:102A800052524F525F5772697465456E61626C6550
:102A90000D0A0000380000205732355178785F4524
:102AA00052524F525F45726173650D0A000000007B
:102AB0005732355178785F4552524F525F415554E5
:102AC0004F504F4C4C494E470D0A00002DE9F04144
:102AD000CBB2C3F58074944200D914460D468F18CA
:102AE00006464FF4807800BF00F022F818B16FF06E
:102AF0000100BDE8F081A2B22946304600F070F82E
:102B000010B16FF00400F4E7FFF792FE10B16FF020
:102B10000200EEE7254405F58070B842264401D94D
:102B20007C1B00E04446BD42DED30020E1E700000C
:102B3000F0B595B041F2883500242A464FF48070F4
:102B400006210E94CDE90C040B94164811941294AE
:102B500013940F94069106A9FDF79AFE28B112A0CE
:102B600000F0C2FDA01E15B0F0BD022000900121B2
:102B70004305102205260696CDE90221CDE904433E
:102B8000C7050190CDE90F71064806A92B466A4694
:102B9000FDF728FE0028E6D00AA000F0A5FD6FF0A2
:102BA0000200E0E7380000205732355178785F4561
:102BB00052524F525F5772697465456E61626C651F
:102BC0000D0A00005732355178785F4552524F5206
:102BD0005F4155544F504F4C4C494E470D0A000031
:102BE00070B58EB004464FF4807000234501039504
:102BF0008600069008934FF040700C9332250B939B
:102C00000D9307960593CDE90902CDE90051FFF731
:102C10008FFF18B16FF001000EB070BD41F2883621
:102C20000B4832466946FDF733FE6FF0040528B9BC
:102C3000074832462146FDF78FFF08B12846EBE7EB
:102C4000FFF7F6FD0028E7D06FF00200E4E7000090
:102C5000380000202DE9F041984616460F460446FC
:102C6000069D08E0681C06D0FDF7F6FCA0EB080006
:102C7000A8420AD84DB120688068384000D00120B1
:102C8000B042EFD10020BDE8F081042084F841007B
:102C9000606C40F0010060640120F4E72DE9F0472A
:102CA000454D044689464FF0000A2868C043800716
:102CB0000AD0414E283E306820F080603060FDF739
:102CC000CBFC0746B04608E00120BDE8F08700BF16
:102CD000FDF7C2FCC01B022867D8D8F8000000012D
:102CE000F6D4206829684FF4FE0721F47C313E02B7
:102CF00041EA00302860207AA389B4F804C0400279
:102D00002D4D2D495B1E227CACF1010C1035091DA7
:102D1000A0F5007080B2521ECCF3080C07EA034302
:102D200040EA0C00184306EA026210432860086873
:102D3000626920F0C000104308600A68A06922F0B0
:102D4000200202430A60281D0A6822F010020A606D
:102D500002684FF6F873E4699A4342EAC4020260DB
:102D60000868B9F1000F40F010020A6011D008683D
:102D7000B9F1010F11D040F400100860D8F800003C
:102D8000444640F08060C8F80000FDF765FC054649
:102D90000DE0086840F40020EFE740F48010ECE715
:102DA000FDF75AFC401B022801D903208DE720685B
:102DB0000001F5D5504688E7284402582DE9F04730
:102DC000454D044689464FF0000A2868C0438007F5
:102DD0000AD0414E283E306820F080503060FDF728
:102DE0003BFC0746B04608E00120BDE8F08700BF85
:102DF000FDF732FCC01B022867D8D8F8000080001D
:102E0000F6D4208829684FF4FE0721F07C713E0239
:102E100041EA00502860207AA389B4F804C0400237
:102E20002D4D2D495B1E227CACF1010C1835091D7E
:102E3000A0F5007080B2521ECCF3080C07EA0343E1
:102E400040EA0C00184306EA026210432860086852
:102E5000626920F44060104308600A68A06922F4A7
:102E6000007202430A60281D0A6822F480720A6018
:102E700002684FF6F873E4699A4342EAC4020260BA
:102E80000868B9F1000F40F480720A6011D0086838
:102E9000B9F1010F11D040F080700860D8F800003F
:102EA000444640F08050C8F80000FDF7D5FB0546C9
:102EB0000DE0086840F48000EFE740F40000ECE724
:102EC000FDF7CAFB401B022801D903208DE72068CB
:102ED0008000F5D5504688E7284402587047FDF732
:102EE000C1BB000070B59CB04C216846FDF73AFAB2
:102EF000202113A8FDF736FA0220FDF749FC2E49E0
:102F000000242E480A6822F001020A600A6802685A
:102F100042F440420260026802F440421B9202689E
:102F20009204FCD5264A136843F00203136012682A
:102F300002F002021B92026842F440420260026800
:102F40000A6842F001020A60096801F001011B9160
:102F500001688904FCD5022009900DF1280C012696
:102F60000096C10301910522C02304268CE80D00C0
:102F7000CDE90D0608250F90CDE91054684612944E
:102F8000FEF782FE08B172B6FEE740201A903F219C
:102F90000301CDE916500322CDE9180313AB13A8A2
:102FA00083E816000421FEF75FFC002801D072B60A
:102FB000FEE71CB070BD00002C04005818480258F1
:102FC000F44402582C48F0B52C4A016841F47001D1
:102FD0000160106800F00F00072804D2106820F08C
:102FE0000F00C01D106026490020254C10340B68CE
:102FF000244D43F001030B6020600B682B400B60F5
:10300000136803F00F03072B04D9136823F00F0391
:10301000DB1D13601A4C1C4A18341C4B261D371D2F
:103020002060174C1A4D28343060261D3860371D3B
:1030300023603B1D35601C1D3A60251D2E1D186048
:10304000331D22602860326018600A680C4B114CF6
:1030500022F4802260330A60186020686FF30F004A
:10306000B0F1005F03D20C490120C1F8080143F21E
:10307000D2000A490860F0BD88ED00E0002000524F
:10308000004402587FEDF6EA8002010100020202CC
:103090000000FF010010005C008000510040005261
:1030A00030B5416EB9B101680D4B03F108048A686F
:1030B0008968C2F34262490F5D5C615C2D01B5FB1A
:1030C000F1F1A0F86A10995CA25C0901B1FBF2F180
:1030D000A0F8681030BD0121A0F86A10F8E70000E0
:1030E0008A5F000890F82810C90706D00168C36AF3
:1030F0004A6822F400321A434A6090F8281089077F
:1031000006D50168036B4A6822F480321A434A608C
:1031100090F82810490706D50168436B4A6822F4E5
:1031200080221A434A6090F82810090706D50168E2
:10313000836B4A6822F400421A434A6090F82810D0
:10314000C90606D50168C36B8A6822F480521A4307
:103150008A6090F82810890606D50168036C8A6891
:1031600022F400521A438A6090F82810490611D5BB
:103170000168436C4A6822F480121A434A60416C29
:10318000B1F5801F06D10168836C4A6822F4C00241
:103190001A434A6090F82810090606D50168C26CE7
:1031A000486820F400201043486070472DE9F84338
:1031B00000250446C0F89050FDF74EFA804620687E
:1031C00020266FF07E470068000713D50022434693
:1031D00031042046009700F03FFA58B1216851E8C9
:1031E000000F20F0800041E80002002AF6D1C4F868
:1031F000886021E020680068400722D5002243460D
:103200004FF480012046009700F026FAC8B12068EC
:1032100050E8001F21F4907140E80012002AF6D116
:103220002068083050E8001F21F0010140E800123A
:10323000002AF5D1C4F88C60032084F88450BDE8DE
:10324000F883C4F88860C4F88C60E56625670020C0
:1032500084F88450F3E7000010B5026852E8001FBC
:1032600021F4907142E80013002BF6D10E4B026856
:10327000083252E8001F194042E80014002CF6D131
:10328000C16E012908D1026852E8001F21F0100127
:1032900042E80013002BF6D100212022C0F88C2038
:1032A000C166416710BD0000FEFFFFEF2DE9F0434E
:1032B00004468068D84E87B0D84B2168D4E90427EB
:1032C000D4F81CC010430A68002547EA0C073843AD
:1032D000324002430A602068E268416821F44051AC
:1032E000114341602268A1699A4201D0206A0143DA
:1032F0009768DFF82CC3CB4ECB4807EA0C070F4387
:1033000097602168676ACA6A22F00F023A43CA626C
:103310002268B2420ED1006800F03800182873D03D
:1033200047DCB8B3082879D010286FD178E0282876
:103330007ED17BE0BD498A4209D1006800F00700D8
:10334000062875D2DFE800F0546A6C6E7072B849D6
:103350008A4209D1006800F00700062868D2DFE839
:1033600000F0475D5F616365B2498A4209D1006838
:1033700000F0070006285BD2DFE800F03A50525414
:103380005658AD498A420BD1006800F00700062864
:103390004ED200E010E0DFE800F02B414345474902
:1033A000A6498A420AD1006800F03800182839D0AE
:1033B000B7DD2028BBD13CE001203AE0A0498A4299
:1033C00009D1006800F00700062831D2DFE800F0DC
:1033D0001026282A2C2E9B498A420BD1006800F027
:1033E0000700062824D2DFE800F003191B1D1F2167
:1033F00000201EE09A421BD18B48001D006800F09F
:103400000700062814D202E00CE007E010E0DFE835
:1034100000F0030507090B0D02200AE0042008E074
:10342000082006E0102004E0202002E0402000E018
:1034300080208549DFF814829A42854A4FF4004380
:103440004FEA21174FF000064ED110281AD006DCA3
:10345000022809D004280BD008287CD10DE02028B0
:103460003ED0402877D13DE0FDF7D2FB014610E089
:103470006846FDF7DFFB01990BE003A8FDF77CFC34
:10348000049906E01068800605D51068C0F3C100F5
:10349000C140002970D0606A676838F8102007EBD7
:1034A0004703B1FBF2F0834255D8B0EB073F52D847
:1034B000002308461946FCF70BFF02467808130E56
:1034C000120243EA012110183A4671410023FCF729
:1034D000FFFE604AA0F5407191423CD821688FE020
:1034E0003946D8E71946D6E7D4F81CC04FF6EF792D
:1034F0009C4546D1082819D005DC58B101280CD0CC
:10350000042875D10DE0102815D0202835D040288A
:103510006ED134E0FEF7F8FA01E0FEF707FB014652
:1035200010E06846FDF786FB01990BE003A8FDF764
:1035300023FC049906E01068800604D51068C0F3E7
:10354000C100C140C1B1636A606838F81330B1FB93
:10355000F3F1490000E04BE001EB5001B1FBF0F06A
:10356000A0F11001494543D84FF6F0732168C0F32C
:1035700042021840104343E043E03946E3E719466E
:10358000E1E7082819D005DC58B101280CD004283F
:103590002ED10DE0102815D020282BD0402827D17F
:1035A0002AE0FEF7B1FA01E0FEF7C0FA014610E0AA
:1035B0006846FDF73FFB01990BE003A8FDF7DCFB34
:1035C000049906E01068800604D51068C0F3C100B5
:1035D000C140B1B1636A606838F81330B1FBF3F1F0
:1035E00001EB5001B1FBF0F0A0F11001494505D904
:1035F000012506E03946EDE71946EBE7216880B280
:10360000C8600120A4F86A00A4F86800284666672C
:10361000A66707B0BDE8F083F369FFCF000C005840
:10362000FFF4FF11001001405444025800440040D0
:1036300000480040004C0040005000400014014091
:1036400000780040007C00400090D003725F0008CA
:1036500000440258FFFC0F002DE9F0479946174639
:103660000E460446089D4FF000082FE0681C2DD040
:10367000FCF7F2FFA0EB0900A84214D89DB1206826
:103680000168490722D5C169C94309070DD4082536
:1036900005622046FFF7E0FDC4F89050012084F851
:1036A0008480BDE8F0870320FBE7C069C0430005C4
:1036B0000CD421684FF4006008622046FFF7CCFD6F
:1036C0002021C4F8901084F88480ECE72068C06959
:1036D00036EA000004D00020B842C7D00020E0E75E
:1036E0000120F9E7FEE700000FB4054B10B503A970
:1036F000044A029800F03CF810BC5DF814FB00008E
:103700001D5400082C0000200FB4084B10B504A96C
:1037100002AA039800F02CF8044602A9002000F049
:1037200058FA204610BC5DF814FB0000D33B00089B
:10373000090700284FEA116104DB00F1E02080F85E
:103740000014704700F00F0000F1E02080F8141D15
:10375000704702E008C8121F08C1002AFAD170475A
:103760007047002001E001C1121F002AFBD1704701
:103770002DE9FF4F8DB00F460546002606E02528AF
:103780000BD0DDE90F1290476D1C761C28780028BD
:10379000F5D111B03046BDE8F08F0024A246A14615
:1037A0000122EC4900E0044315F8013F203B02FAF6
:1037B00003F00842F7D128782A2810D06FF02F02A2
:1037C0002878A0F13001092914D80AEB8A0102EB0C
:1037D000410144F0020400EB010A6D1CF0E701CF47
:1037E0005FEA000A03D544F40054CAF1000A44F029
:1037F00002046D1C28782E2817D115F8010F44F00B
:1038000004042A280ED06FF02F022878A0F130018E
:1038100009290AD809EB890102EB410100EB0109F2
:103820006D1CF2E757F8049B6D1C28786C280FD0AC
:1038300006DC4C2817D068280DD06A2814D104E083
:10384000742810D07A280FD10DE044F400140AE057
:1038500044F4801401E044F440146978814202D1B8
:1038600004F580146D1C6D1C2A786E2A1FD00CDCA8
:10387000632A31D004DC002A8BD0582A11D1A3E06E
:10388000642A68D0692A0CD165E0732A2ED004DC42
:103890006F2A73D0702A04D19BE0752A6FD0782AE2
:1038A0006ED01046DDE90F129047761C50E1C4F34C
:1038B0000250022806D0032809D0042801CF09D0DD
:1038C000066045E101CFF117C0E9006140E101CF99
:1038D00006803DE106703BE117F8040B8DF800000F
:1038E00000208DF80100EB46012003E057F804BBEF
:1038F0004FF0FF3061074FF0000102D40DE008F1F6
:103900000101884649450FDA8045F8DB1BF80810AD
:103910000029F4D108E008F1010188468142FADB70
:103920001BF808100029F6D1DDE90F23AAEB0800E7
:103930008146214600F036F9304400EB080604E0E9
:10394000DDE90F121BF8010B9047B8F10108F7D21F
:1039500021464846F7E00A21C4F302534FF0000B1A
:103960000891022B04D001CFC117032B09D00AE024
:10397000FF1D27F00707F7E8020108E032E01FE02B
:1039800020E000B2C117042B01D140B2C117031EC1
:1039900071F1000307DA4FF0000CD0EB0C006CEB78
:1039A00001012D2302E0230504D52B238DF82430BB
:1039B000012303E0E30701D02023F7E7984658E00E
:1039C0000A2110E010210EE010204FF0000B0890AB
:1039D0000CE010214FF0000B44F004044FF00809F4
:1039E000089103E008214FF0000B0891C4F3025343
:1039F000022B04D001CF0021032B06D006E0FF1DCF
:103A000027F00707F7E8020103E080B2042B00D19A
:103A1000C0B24FF0000823072BD5702A07D0DDF87D
:103A200020C08CF0100C5CEA0B0C05D00EE040239B
:103A30008DF82430012308E050EA010306D030233A
:103A40008DF824308DF8252002239846DDF820C01B
:103A50008CF0080C5CEA0B0C0BD150EA010301D18D
:103A6000630706D530238DF824304FF00108A9F103
:103A70000109582A04D038A20B9208AA0A920BE036
:103A80003AA2F9E75B46089AFCF722FC0B9B9B5C89
:103A90000A9A521E0A92137050EA0102F2D10A9851
:103AA000ADEB000000F1200B600702D524F4803458
:103AB00001E04FF00109D94502DDA9EB0B0000E060
:103AC000002000EB0B0141440890AAEB010AE0033F
:103AD00006D4DDE90F232146504600F063F8064482
:103AE0004FF0000908E009A911F80900DDE90F12FB
:103AF000904709F10109761CC145F4DBE0030CD5C0
:103B0000DDE90F232146504600F04CF8064404E05E
:103B1000DDE90F1230209047761C0899481E089066
:103B20000029F5DC08E00A980A990078491C0A91F6
:103B3000DDE90F129047761CBBF10001ABF1010BE0
:103B4000F1DC21465046DDE90F2300F019F8064468
:103B50006D1C1BE60928010030313233343536370D
:103B600038396162636465660000000030313233C9
:103B70003435363738394142434445460000000069
:103B80002DE9F041044600251E461746880404D45A
:103B900005E039462020B0476D1C641EF9D5284643
:103BA000BDE8F0812DE9F041044600251E4690460F
:103BB000C80301D5302700E02027880404D505E09C
:103BC00041463846B0476D1C641EF9D52846BDE80D
:103BD000F0810A68531C0B601070704770B5044682
:103BE0000022501E22712063204601F0E7FE08B13A
:103BF000042070BD04F2322001F02AFD054694F83D
:103C000034004AF65526EB2803D0E92801D0E828ED
:103C10003FD1B54207D1082221A104F18600FCF76B
:103C2000B6FB0028E5D004F13F0001F011FD411E74
:103C3000084294F841102CD14FF48052904228D37E
:103C4000904226D829B3481E014222D104F14200F5
:103C500001F0FEFCE8B194F84400401E012818D899
:103C600004F1450001F0F4FC98B104F1470001F0C3
:103C7000EFFC802806D204F1540001F0DEFCB0F520
:103C8000803F06D304F14A0001F0E2FC08B10020B5
:103C900070BDB54201D1022070BD032070BD00008F
:103CA0004641543332202020000000008269891EE2
:103CB000921E8A4201D800207047C26A408900FBE8
:103CC000012070472DE9F05F0C46824601F11A0091
:103CD00001F0BEFC78BB207801270026DFF8609059
:103CE00000F03F004FF6FF7B401E00EB800101EB30
:103CF000C00500BF19F80600204401F0A9FC804669
:103D00006FB1FF2D17D801F009FB07463AF81500EF
:103D10006D1C01F003FB87420DD1474601E0D845F9
:103D200009D1761C0D2EE5D32078400606D52FB19B
:103D30003AF8150010B10020BDE8F09F0120FBE724
:103D4000AC5F00082DE9F04106680F00804606D000
:103D500001F0E6FB022809D20120BDE8F0813469B8
:103D600014B1B069A04207D8012405E0411CF4D089
:103D7000B1698142F1D83C4670690028EDD0BC425F
:103D800016D1B069651CA84200D8022540462946D4
:103D900001F0C6FB0128E0D0411CDED038B130690B
:103DA000022805D3B169814202D9044600E0ADB9C9
:103DB0002546B0696D1CA84203D8022C4FF00205BD
:103DC0000AD32946404601F0ABFB38B10128C4D0E4
:103DD000411CC2D0A542ECD10020BEE74FF0FF3419
:103DE00029462246304601F065FF30B95FB12A46C8
:103DF0003946304601F05EFF28B1012800D0012489
:103E000025462846A9E7D6E905013561891E88427D
:103E100001D8401E7061707940F001007071F0E7C8
:103E20002DE9F84F8846016800248246D8F80050F2
:103E3000D1F80C7015F8016B304600F0BFF988BB63
:103E400036B140F2B511304601F032FA06003CD0EE
:103E5000701C3AD0B6F5803F03D3300C27F814001D
:103E6000641C202E1AD32F2E0FD05C2E0DD0802E46
:103E700004D278A03146FCF780FA98B9FF2C24D2FE
:103E800027F81460641CD5E76D1C28782F28FBD018
:103E90005C28F9D00026C0B2202800D20426C8F839
:103EA00000500AE011E000BF07EB440030F8020CBC
:103EB000202801D02E2802D1641E002CF4D100202D
:103EC00027F814000CB1002503E00620BDE8F88FA8
:103ED0006D1C37F815002028FAD015B938882E281F
:103EE00003D146F0030600E0641E2CB107EB44004A
:103EF00030F8020C2E28F7D120220B210AF12000E5
:103F0000FCF729FA4FF000084FF0080BCDF80080BD
:103F100037F8150005F101055FEA000924D0B9F171
:103F2000200F04D0B9F12E0F04D1A54202D046F0E3
:103F30000306EDE70098584501D2A54219D1BBF11F
:103F40000B0F0FD0A54201D046F003060CD84FEA64
:103F5000886125464FF008004FF00B0B4FEA1168BF
:103F60000090D5E746F003069AF82000E5284CD0EB
:103F70004EE0B9F1800F48460DD346F0020640F2FC
:103F8000B51101F0ADF98146000604D5344909F0B8
:103F90007F0011F80090B9F1FF0F484612D900993F
:103FA000ABF10100814204D346F00306CDF800B026
:103FB000AEE7009851444FEA1922401C009081F866
:103FC00020201AE0B9F1000F04D0014625A0FCF72B
:103FD000D4F918B15F2046F003060DE0A9F14100C5
:103FE000192801D848F00208A9F16100192804D85D
:103FF000413080B248F001088146009A009952444D
:10400000491C009182F8209082E705218AF820104F
:10401000BBF1080F03D14FEA88604FEA1068C8F37C
:104020008100032803D06FEA0800800701D146F021
:104030000206B00709D45FEAC87001D046F0100646
:104040005FEA487001D546F008068AF82B60002028
:104050003CE700002A3A3C3E7C223F7F0000000003
:10406000B95F00082B2C3B3D5B5D00002DE9FF4F45
:1040700083B09B4601216A46039800F0F9FA0028B4
:104080007ED10826009F4FF03F09F10103E0700048
:1040900010F0FF0606D016FB09F0B7FBF0F08842DF
:1040A000F5D806B9FF2658464FF48051FCF75AF967
:1040B0000BF5DF754FF0000A4C466BE0049951F8A0
:1040C0002A80B8F1640F09D801D1384605E04FF0D5
:1040D0006400B7FBF0F000FB08F0804604EB08003A
:1040E000B84201D8A04201D2A7EB0408B8F1000FF2
:1040F00052D005F10800214601F0A2FE05F10C00A6
:10410000414601F09DFE059B04EB08010191491E0B
:104110002B710AF1010AB1FBF9F3B4FBF9F2B4FB1C
:10412000F9FCBAF1040F09FB131009FB1C48B2FBA0
:10413000F6F319FB06FC08F1010ECDF808C0B4FB3C
:10414000FCF8B1FBF9FC019C00F1010006FB132215
:1041500085F803806A70BCFBF6F206FB12C24FF0D2
:10416000C00C0CEA9803DDF808C043EA0E03B1FB6B
:10417000FCF14FF0C00C0CEA910C4CEA000C00E092
:1041800018E0AB706A7185F806C0E97105F1100599
:1041900002D20CB1BC4291D30BF5FF704AF6552107
:1041A00001F056FE039801230022594600F096FACA
:1041B000002800D0012007B0BDE8F08F002800D013
:1041C000002070472DE9F0470C46054601F094FEAB
:1041D000A8BB21462846FFF769FD4FF480570646E5
:1041E000286305F1340039468046FCF7BBF868893E
:1041F000FC00B4EB003F04D9040300E06408BC42B7
:104200001ED9204601F04FF85FEA0009F6D0BC4203
:1042100016D92146FCF7A6F8270B002400E03C4401
:104220006889A04207D9687832193B46494600F0B0
:1042300055FA0028F3D0484601F037F80FE011E0B6
:104240000127002400E03C446889A04207D968782F
:1042500032193B46414600F041FA0028F3D0688904
:10426000A04202D00120BDE8F0870020FBE72DE945
:10427000F047D0F800900021054600F0A7F900288B
:1042800052D1471EEF62FF24A046A969484601F0BB
:1042900095FB060047D1E969087850B1CA7AE5284C
:1042A00002F03F02AA7136D0130704D50F2A32D18B
:1042B00005E0042637E00F2A01D0E4B120E095F8AC
:1042C0002B20520629D4420606D591F80D8000F025
:1042D000BF002B690446EB62A04209D14A7B4245EC
:1042E00006D1D9F80C00FFF7EDFC08B1641E00E020
:1042F000FF24E4B211E0084601F0AEFD404512D0C3
:1043000095F82B00C00706D1E8690B2205F12001C2
:10431000FCF73DF838B1FF24EF620021284600F099
:1043200005F80600B1D03046BDE8F0872DE9F0472A
:10433000066989460768044620364FF00008B6F53E
:10434000001F35D2A06910B1310503D03DE0042033
:10435000BDE8F0876169401CA06129B17889401EE1
:1043600010EA163F05D030E03889B0EB561F1FD950
:104370002BE0204601F0D4F8012805461DD9681C21
:1043800014D0B869A8421AD8B9F1000F10D06169E9
:104390002046FFF7D7FC05000DD0012D0DD0681C7D
:1043A00004D029463846FFF70DFF40B10120CFE782
:1043B000C4F81880CBE70720CAE70220C8E72946DF
:1043C00038466561FFF772FCA061C6F30B00384404
:1043D00026613430E0610020BAE700002DE9F04F9B
:1043E000044690F82B008DB010F0A00FD4F8009088
:1043F00003D006200DB0BDE8F08FD9F80C000025E1
:1044000000E06D1C30F815100029FAD104F12000ED
:1044100007AB04F1200A07C883E807009DF82700CE
:10442000C10719D0402084F82B000126D9F80C20B0
:1044300007A93346504601F025F82046FFF717FF3D
:1044400010B9761C642EF1D3642E0FD00428D1D17C
:104450009DF8270084F82B009DF82700800707D5DA
:104460000D200C35B5FBF0F56D1C02E00720C1E70F
:10447000012527680021204600F0A8F888B9002609
:10448000A169384601F09AFA58B9E0690078E52840
:104490000AD048B1002620460121FFF747FF002837
:1044A000EED0042812D012E0761C2846AE42F2D19B
:1044B000451E0A9568D02169684201EB40112046EB
:1044C00000F084F85FEA000803D07AE00720804615
:1044D00077E0504601F0C0FC4FF6FF7B0B90A169DE
:1044E000484601F06BFA5FEA00086AD10A980F2388
:1044F000D4F81C800022C0B20290D9F80C000B99AD
:10450000059008F11A0088F80D10114688F80B3054
:1045100088F80C2001F09CFC02980027DFF8A8A086
:10452000401E00EB800202EBC00601E05D4503D0B7
:10453000059830F81650761C1AF8071001EB0800A1
:10454000294601F085FC05B95D467F1C0D2FEDD392
:104550005D4505D0059830F8160008B1029803E0D3
:10456000029840F04000029088F8000001200021ED
:1045700089F804002046FFF7D9FE5FEA000820D141
:104580000A98401E0A90AAD1A169484601F016FA7D
:104590005FEA000815D154F81C0F2021FBF7E2FE5A
:1045A0002168012062680A60A2684A60A2890A81C3
:1045B000A27B8A722268E17B01F01801117389F8ED
:1045C0000400404616E70000AC5F00082DE9F0410A
:1045D0000768B1F5001F0E46054636D2F00634D105
:1045E000AC682E6124B93878032805D3BC6A1CB1A5
:1045F00078894FEA003812E03889B0EB561F24D989
:10460000B86A12E0284600F08BFF0446401C1AD01E
:10461000022C1AD3B869A04217D9A6EB0806214686
:104620004645EFD23846FFF741FBC5E9054060B18A
:1046300000EB1632C6F30B01C8193430C5E9062069
:104640000020BDE8F0810120FBE70220F9E7012806
:1046500010B501D0012010BDFEF712F94FF4FA7029
:10466000401E0004000CFBD1FEF7A0F9002010BD95
:10467000012801D004207047012904D0022906D066
:10468000032909D106E04FF40060106004E04FF404
:10469000805000E080201080002070472DE9F0411C
:1046A00001281C4615460E4602D00420BDE8F081C4
:1046B00064B14FF48057304629033A46FEF712F9A9
:1046C000641E05F1010506F58056F4D10020EDE7E2
:1046D000012801D001207047002070472DE9F041EA
:1046E00001281D4616460F4602D00420BDE8F08181
:1046F00085B14FF4805834032046FEF789F92146EE
:1047000042463846FEF7E2F96D1E06F1010607F54E
:104710008057F0D10020E9E738B5044600F0BEFC30
:10472000002807D16946204601F009FC002801D184
:104730000021216038BD00002DE9FF4F97B0984659
:1047400017A816460C4600F049FF002803DA0B2094
:104750001BB0BDE8F08FFE49002551F8201001B1D3
:104760000D70C0B20490FFF772FFC10701D00320A3
:10477000EEE7400701D50A20EAE704B9F54C4FF40B
:10478000004760680E9030B9049803210EAAFFF725
:104790006FFF0E9820B1B84202D8411E084201D0E6
:1047A00001200E9060784FF4805B2378421E012A2E
:1047B00003F00F01169100D90120A1681290481E44
:1047C000B84205D28020B1FBF0F200FB121008B114
:1047D0004FF40071E0681391B0F1807F02D8411E60
:1047E000084200D00020B8FBFBF1B0FBFBF75FEA0A
:1047F000010A12D0340005D14FEA0A3000F053FD0F
:1048000004000AD000200A900290012104980AAA0C
:10481000FFF72EFF40B116B104E0112098E72046C3
:1048200000F043FD012093E71698000706D40A988C
:104830003F2803D93F380A903F2002900A988028E9
:1048400005D216B9204600F030FD0E2080E7802FFB
:1048500000D9802716994FF6F57340F6F57E890743
:1048600016994FEAC17104D521B94FF003090D9093
:10487000D3E019B14FF002090D90C5E016B92046FA
:1048800000F013FD132063E7DFF8C8C2420C0021DB
:104890000125ACF1100C01E06D00491C3CF81180C1
:1048A000B8F1000F01D09045F6D9B0FBF5F1202208
:1048B0000F9200220B9299420BEB810202F1070248
:1048C000B2FBFBF20692BCD9A34A9142B9D82EE0C2
:1048D000DFF88082020B00210125A8F11E0801E00B
:1048E0006D00491C38F811C0BCF1000F01D094458F
:1048F000F6D9B0FBF5F1714503D9042202EB410171
:1049000008E001EB41024FF0030C521C4FF001098B
:104910000CEB5201139A59444FEA421C01220F92A8
:10492000491EB1FBFBF10691BCFBFBF10B91B9F108
:10493000030F0F9A0299DDF82CC00A44099202EB8A
:104940000C08DDF848C0069A0E9902FB0C82A1F112
:10495000010C1144A1F1010121EA0C01A1EB0201BA
:1049600038D0DDF848C0B1FBFCF80CFB181CBCF1DA
:10497000000F0CD0DDF83CC0491E0CF1010CCDF845
:104980003CC0DDF824C00CF1010CCDF824C0DDF8EA
:1049900048C0B1FBFCFC069961440691029902EB08
:1049A0000512511A814291D80F99B9F1030F129A49
:1049B000A0EB010C069901FB12C20B99A2EB0101BD
:1049C000B1FBF5F810D0B9F1020F15D0B9F1010F14
:1049D0002FD030E0DDF83CC08C44CDF83CC0DDF891
:1049E00024C061440991D9E7984524D8002F7FF469
:1049F00028AF6F0811D124E7984512D947B9402153
:104A0000B1EB450F04D36F003D007FF472AF5FE759
:104A10001699890707D54FF003093D007FF445AF8C
:104A200032E7F04507D8002FE5D16F00802FEBD992
:104A300007E7F045DFD859462046FBF793FC47A02F
:104A4000302102682260426862600089208104F19E
:104A50000B00A172594601F0FBF965730F9881B202
:104A600004F10E0001F0F4F91298B9F1030F20746B
:104A70000FD0139881B204F1110001F0E9F90A99FD
:104A8000B1F5803F07D289B204F1130001F0E0F9DB
:104A900005E00020EEE704F1200001F0D1F9F82054
:104AA00060753F2104F1180001F0D2F9FF2104F1F3
:104AB0001A0001F0CDF9029904F11C0001F0C0F9CF
:104AC0000D992927B9F1030F29D004F1270001F02E
:104AD000B7F9069881B204F1160001F0B9F9802007
:104AE00084F82400132284F826701FA104F12B00FF
:104AF000FBF71FFC4AF6552704F5FF703946019075
:104B000001F0A6F9029A012304982146FFF7E6FD79
:104B100000287FF480AEB9F1030F39D069E004F1C9
:104B2000430001F08DF9069904F1240001F088F9A1
:104B3000022104F12C0001F083F9012104F130007D
:104B400001F086F9062104F1320001F081F915E047
:104B50002400002058600008F5FFFF0FEBFE904D89
:104B600053444F53352E30004E4F204E414D45207B
:104B7000202020464154202020202000802084F83E
:104B80004000132284F842705FA104F14700AFE7B0
:104B9000029A012304982146921DFFF79FFD594672
:104BA0002046FBF7DFFB5D49204601F049F95C49EF
:104BB00004F5F27001F044F9A8F1010104F5F47074
:104BC00001F03EF9022104F5F67001F039F901987F
:104BD000394601F03DF9029A012304982146D21D7D
:104BE000FFF77CFD029A012304982146521CFFF72F
:104BF00075FD0AFB0BF12046FBF7B4FBDDF82480C2
:104C0000002024E0B9F1030F2ED0B9F1010F3AD002
:104C10006FF007014FEA040001F012F9069F5046B9
:104C2000574500D83846019003460498424621462D
:104C3000FFF754FD00287FF4EEAD59462046FBF700
:104C400091FB01983F1A8044E9D10998401C1299C0
:104C500009908842D6D3B9F1030F00D00B9D50467E
:104C6000554512D9074611E06FF00701204601F0C3
:104C7000E7F8201D4FF0FF3101F0E2F86FF07041CE
:104C800004F10800C8E72749C4E72F4604983B46CB
:104C900042462146FFF722FD0028CCD1ED1BB84447
:104CA000DDD1B9F1030F05D00A98B0F5803F03D3E9
:104CB000062205E00C2203E0B9F1020F10D0012218
:104CC0001698000713D400210A982346CDE9140151
:104CD000049814A9FFF7CAF9050008D016B104E03A
:104CE0000422EDE7204600F0E0FA284630E50022F5
:104CF00004981146FFF7BCFC00289CD116B9204649
:104D000000F0D3FA002023E54E4F204E414D4520C0
:104D1000202020464154333220202000525261414D
:104D200072724161F8FFFF0017B581B01446029816
:104D30000090684600F052FC002802DA0B2004B014
:104D400010BD0B4A002352F8201011B142F8203058
:104D50000B70019919B148700B7042F820102CB1FA
:104D6000002201A902A800F001FDE8E70020E6E723
:104D7000240000202DE9F74705008DB00BD002F08C
:104D80003F0669460EA8324600F0F0FC04004FF0E2
:104D9000000904D0D4E0092010B0BDE8F0870098E5
:104DA00001904FF4007000F07EFA5FEA000809D02D
:104DB000009901A8C1F80C800E9900F0F3FA0400E4
:104DC00002D006E01120E7E79DF82F00000600D58D
:104DD000062416F01C0F4CD04CB1042C03D101A8B2
:104DE000FFF7FCFA044646F008065CB18FE09DF838
:104DF0000A0010F0110F01D0072488E0700701D5D8
:104E000008249AE0300743D50898002739460E3029
:104E100001F016F808983946163001F011F8089993
:104E2000009800F0F7FB0899074620200022C8727E
:104E30000899009800F0F0FF089800211C3000F05D
:104E4000FFFF00990120087107B3D1F830A00022BC
:104E500001A8394600F0A6FF040058D10098514639
:104E600000F0ACFD04000098A7F1010707610BD02A
:104E70004DE0C4BB9DF80A00C10601D5042446E0FC
:104E8000B10701D5C007B7D1300701D546F04006BC
:104E90000098016B296208996962089900F0BAFBD1
:104EA000A86008981C3000F0C8FBE86005F12800F5
:104EB0000099824629600099C988A9804FF48051E1
:104EC0002E7485F81190C5F81C90C5F81490FBF766
:104ED00049FAB0063BD5EE68B6B36E610098A96892
:104EE000408907030FE012E0284600F019FB012873
:104EF000014600D80224481C02D0F61B1CB104E075
:104F00000124F61B01E0BE42EED8A96124B140465F
:104F100000F0CBF9A4B915E0300518D00098FEF7E1
:104F2000C5FE90B100EB1632EA61009801235146AC
:104F30004078FFF7B3FB38B10124404600F0B5F9E3
:104F4000C5F80090204627E701E00224F5E7404637
:104F500000F0ABF9F6E72DE9F04F89B015460022D5
:104F600099460446884603A91A6000F0E8FF002825
:104F700012D1607C00280FD1207CC0070BD0626961
:104F80000127E16804F1280B4FF0020A881A8542D4
:104F900000D905467EE0072009B0BDE8F08F6069C2
:104FA00001055FD103994989491E11EA103609D1DB
:104FB00008B3A169204600F0B3FA02281DD3411CB2
:104FC0004BD0A061A1690398FEF770FEA8B1290B30
:104FD00004913044019027D00398721841898A4285
:104FE00001D9891B049140784146049B019AFFF73F
:104FF00055FB90BB05E0A068DFE7022084F811A014
:10500000CAE7207C00060CD5E1690198081A0499CA
:10501000884206D208EB003059464FF48052FBF725
:1050200088F9049806032BE0E269824218D0207CBC
:1050300000060AD50398012359464078FFF74EFB36
:1050400058B9207C00F07F00207403980123019A56
:1050500059464078FFF722FB10B1012067749BE7A7
:105060000198E061A08AC0F30B00C0F58056AE4203
:1050700000D92E460119324628314046FBF759F92E
:10508000D9F80010AD1BB0443144C9F80010606974
:1050900030446061002D82D100207DE7F8B50446E0
:1050A000694600F04CFF00280ED1217C4A060BD542
:1050B00008060ED500980123E26904F12801407822
:1050C000FFF70CFB08B10120F8BD207C00F07F0049
:1050D0002074216A0026009800F070FC0028F3D1AB
:1050E000656A2946E87A40F02000E872A2682068E4
:1050F00000F092FEE16805F11C0000F0A1FE05F150
:105100001600314600F09CFE002105F1120000F06F
:105110009FFE00980121017100F0ACFE217C01F09E
:10512000BF012174F8BD2DE9F04F89B0154600226A
:1051300099460446884602A91A6000F000FF00283C
:1051400006D1607C002803D1207C800703D407208F
:1051500009B0BDE8F08F6069012704F1280B4FF01A
:10516000020A411900D3C54394E0606901056ED17C
:1051700002994989491E11EA103612D108B1A16974
:1051800002E0A06828B900212046FEF7DBFD0028D8
:105190007DD001282ED0411C54D0A168A06101B956
:1051A000A060207C00060BD502980123E2695946D5
:1051B0004078FFF793FAA8BB207C00F07F002074B2
:1051C000A1690298FEF772FDA0B1290B039130444A
:1051D000019028D0DDE9021032184889824201D9B5
:1051E000801B039048784146039B019AFFF776FAAB
:1051F000C0B903E0022084F811A0A9E7E169019891
:10520000081A039988420AD208EB003158464FF435
:105210008052FBF78EF8207C00F07F00207403980A
:10522000060326E00EE0E16981420ED0E168606984
:1052300088420AD202980123019A59464078FFF722
:105240002DFA10B10120677482E70198E061A08A0D
:10525000C0F30B00C0F58056AE4200D92E46414641
:10526000204432462830FBF764F8207C40F0800070
:105270002074D9F80010AD1BB0443144C9F80010B7
:10528000606930446061E168884202D800E004E06F
:105290000846E060002D7FF468AF207C40F04000BD
:1052A0002074002054E700F02BBA00F0C3B80000CF
:1052B0000A4B80284FF0000210B501D202460BE0E5
:1052C000A1F58074B53C07D1FF2805D803EB400059
:1052D000A0F58050B0F8002F104610BD686000089F
:1052E0000D4B802802464FF0000010B501D290B25D
:1052F00010BDB2F5803FFBD2A1F58074B53C04D05F
:1053000010BD401C80B2802803D233F810109142A7
:10531000F7D18030C0B210BD6860000830B5B0F57C
:10532000803F20D280B2B0F5805F01D21B4900E0FF
:105330001B4931F8022B002A15D0904213D331F8C3
:10534000023B52FA83F51C0A8542DBB221D9092CB3
:1053500009D2DFE804F005090E10121416181A001D
:10536000801A31F8100030BD811A01F00101401A95
:105370000DE010380BE0203809E0303807E01A382B
:1053800005E0083003E0503801E0A0F5E35080B2BA
:1053900030BD002CCDD101EB4301CAE768610008A4
:1053A0005A63000873B505680446019801E0401C83
:1053B000019001782F29FAD05C29F8D00020A06054
:1053C00001980078202807D2802084F82B00002143
:1053D0002046FFF7FBF87CBD01A92046FEF720FD23
:1053E0000028F8D12046FEF742FF94F82B1028B190
:1053F0000428F0D14907EED405207CBD4907FCD430
:10540000A079C006F8D5208AC0F30B0041192846C0
:10541000343100F0FFF8A060DEE7000013B5044867
:10542000FF2301226946FCF7FBFF00981CBD00002A
:105430008400002010B5002821D0114B0022001F4D
:10544000196803E0814203D80A4649680029F9D166
:1054500052B11368841A9C4204D100681844106049
:10546000104602E0506000E0186039B102680B1A83
:10547000934203D10B681A4402604968416010BD31
:10548000300000202DE9FC4106460868052B3060FD
:105490004868706008893081887AB07211D91F4CD1
:1054A0000CE00021921C1D460346400865F35F0393
:1054B000DD0300D56340491C1029F4D3108800286F
:1054C000EFD107244FEA0D0503F00F001B09303020
:1054D000392800D9C01D2855641E01D0002BF3D1F6
:1054E0007E200027A4F10108285506E0FEF766FE9D
:1054F00010B1474506D07F1C7F1CA74202D2F05D49
:105500002028F3D1082C02D2285D641C00E0202062
:10551000F0557F1C082FF5D3BDE8FC812110010058
:105520002DE9F041046802290D460CD3A069A84278
:1055300009D920784FF0FF36012808D0370D02280E
:105540002BD0032839D001263046BDE8F081606AAF
:1055500005EB550700EB1731204600F02FFA002825
:10556000F2D1C7F30B0020447F1C90F83480606AAE
:1055700000EB1731204600F021FA0028E4D1C7F3F0
:105580000B002044E90790F8342048EA022001D0BB
:105590000609D9E7C0F30B06D6E7606A00EBD52110
:1055A000204600F00BFA0028CED107EA450020443F
:1055B000343000F04DF80646C6E7606A00EB9521EE
:1055C000204600F0FBF90028BED107EA8500204400
:1055D000343000F032F820F07046B5E710B50168BD
:1055E00004464FF0FF300A0011D000BF11F8013B14
:1055F000202B0DD33A2BF9D11378303B092B06D849
:10560000921C8A4203D1022B01DA1846216010BD98
:10561000002010BD70B50D46064601F11A0000F0DD
:1056200017F804463078032805D105F1140000F07E
:105630000FF844EA0044204670BD83784278017830
:10564000C07843EA002042EA002041EA0020704787
:105650000178407841EA002070470000254B002087
:105660001968890311D4BFF34F8FBFF36F8F22499D
:105670000860BFF34F8FBFF36F8F196841F400319B
:105680001960BFF34F8FBFF36F8F1968C90322D41E
:10569000184970310860BFF34F8F081F43F6FF743D
:1056A0000068154D1035C0F34E31C0F3C90204EA4D
:1056B0004116104646EA80772F60401EFAD2491EF6
:1056C000F5D2BFF34F8F186840F480301860BFF3F5
:1056D0004F8FBFF36F8FFAF7CDFFFDF703FCFCF799
:1056E000F9FEFCF799FFFCF77BFF04A000F080F9BE
:1056F000FEE7000014ED00E050EF00E0313A00005A
:10570000F0B50B30154D20F007010024144A0FE0CE
:1057100003688B420BD38B4205D95E1A4318476846
:10572000C3E9006700E04368136002C004E0021DA3
:1057300010680028ECD12046002802D1286808B162
:105740000020F0BD064A07481060074A121A22F0EE
:105750000702C0E9002401202860D7E734000020B8
:10576000300000207C250020784500202DE9FF41F5
:10577000002617460D460E60FFF730FF002803DABB
:105780000B2004B0BDE8F081884951F8204094B165
:105790002C6007F0FE05207820B16078FEF798FFB6
:1057A000C1070AD02670B0466078FEF750FFC107E7
:1057B00008D00320E5E70C20E3E70DB1400704D44F
:1057C0000020DEE71DB1400701D50A20D9E70021FE
:1057D0002046FEF703FA02281BD100264FEA0D05EA
:1057E00004EB061000F5FD70FFF727FF45F82600D3
:1057F000761C042EF4D3002655F8261029B1204635
:10580000FEF7ECF9022801D203E00320761C042EF7
:10581000F2D304280AD0022876D2276B04F13F0085
:10582000FFF716FFB0F5805F6ED101E00120A8E719
:1058300004F14A00FFF70CFF010004D104F1580005
:10584000FFF7FBFE014694F84460E161012EE6702B
:1058500001D0022E58D14E4394F841006081B0B37C
:10586000411E084250D104F14500FFF7F1FE410608
:10587000208149D104F14700FFF7EAFE050004D179
:1058800004F15400FFF7D9FE054604F14200FFF78A
:10589000DFFE020038D02389901900EBD3118D422E
:1058A00032D360896D1AB5FBF0F080B1DFF800C12A
:1058B0000025604500D803254FF6F57C604500D8EB
:1058C000022540F6F57C604502D8012501E01BE089
:1058D000D5B13A44801C3944E162A061032DC4E98A
:1058E000087213D083B19119A162022D1FD000F06C
:1058F000010100EB400001EB500000BFE16900F640
:10590000FF70B1EB103F14D20D203AE704F15E00B6
:10591000FFF79EFE0028F7D120890028F4D104F17A
:105920006000FFF78AFEA169A0628800E6E74000F8
:10593000E4E74FF0FF31616180202161032D607148
:105940002CD104F16400FFF783FE012826D1791CD5
:10595000204600F033F808BB04F2322084F80580BA
:10596000FFF776FEA0F52A41553917D104F134002E
:10597000FFF763FE0F49884210D104F50670FFF768
:105980005CFE0D49884209D104F50770FFF755FE0A
:10599000606104F50870FFF750FE20610348257030
:1059A000001F0188491C0180E18009E724000020D4
:1059B000F5FFFF0F525261417272416170B50446AA
:1059C000006B00260D46A8420FD0204600F094FA46
:1059D00006000AD16078012304F134012A46FEF75B
:1059E0005DFE08B1751E01262563304670BD0000BE
:1059F00030B50122054689B001463E48FFF794F9CB
:105A00003D4C0D280246207004D0002A16D03BA041
:105A1000294646E044A02946FDF766FE00222846B6
:105A20004FF480531146FEF787FE021E294622706E
:105A300001D04CA035E054A0FDF756FE5BA02946EE
:105A4000FDF752FE64A12A466846FDF75DFE6548F3
:105A50000B226946FFF78EF9021E227002D062A067
:105A600069461EE0244B0D225E4866A11B1DFFF710
:105A70005AFB021E227002D066A0694622E06268CC
:105A80006CA06946FDF730FE5648FEF745FE5548C6
:105A900001226946FFF76EF9021E207005D06CA046
:105AA0006946FDF721FE09B030BD134B4FF480620B
:105AB00071494C480833FFF74EFA021E227007D096
:105AC0006EA06946FDF710FE4648FEF725FEEAE7A0
:105AD00069490020A268885470A00A466946FDF70B
